{
  "_format": "hh-sol-artifact-1",
  "contractName": "Dexchange",
  "sourceName": "contracts/Dexchange.sol",
  "abi": [
    {
      "inputs": [],
      "stateMutability": "nonpayable",
      "type": "constructor"
    },
    {
      "anonymous": false,
      "inputs": [
        {
          "indexed": false,
          "internalType": "uint256",
          "name": "tradeId",
          "type": "uint256"
        },
        {
          "indexed": false,
          "internalType": "uint256",
          "name": "orderId",
          "type": "uint256"
        },
        {
          "indexed": true,
          "internalType": "bytes32",
          "name": "ticker",
          "type": "bytes32"
        },
        {
          "indexed": true,
          "internalType": "address",
          "name": "trader1",
          "type": "address"
        },
        {
          "indexed": true,
          "internalType": "address",
          "name": "trader2",
          "type": "address"
        },
        {
          "indexed": false,
          "internalType": "uint256",
          "name": "amount",
          "type": "uint256"
        },
        {
          "indexed": false,
          "internalType": "uint256",
          "name": "price",
          "type": "uint256"
        },
        {
          "indexed": false,
          "internalType": "uint256",
          "name": "date",
          "type": "uint256"
        }
      ],
      "name": "NewTrade",
      "type": "event"
    },
    {
      "inputs": [],
      "name": "DAI",
      "outputs": [
        {
          "internalType": "bytes32",
          "name": "",
          "type": "bytes32"
        }
      ],
      "stateMutability": "view",
      "type": "function"
    },
    {
      "inputs": [
        {
          "internalType": "bytes32",
          "name": "_ticker",
          "type": "bytes32"
        },
        {
          "internalType": "address",
          "name": "_tokenAddress",
          "type": "address"
        }
      ],
      "name": "addToken",
      "outputs": [],
      "stateMutability": "nonpayable",
      "type": "function"
    },
    {
      "inputs": [],
      "name": "admin",
      "outputs": [
        {
          "internalType": "address",
          "name": "",
          "type": "address"
        }
      ],
      "stateMutability": "view",
      "type": "function"
    },
    {
      "inputs": [
        {
          "internalType": "address",
          "name": "",
          "type": "address"
        },
        {
          "internalType": "bytes32",
          "name": "",
          "type": "bytes32"
        }
      ],
      "name": "balances",
      "outputs": [
        {
          "internalType": "uint256",
          "name": "",
          "type": "uint256"
        }
      ],
      "stateMutability": "view",
      "type": "function"
    },
    {
      "inputs": [
        {
          "internalType": "bytes32",
          "name": "_ticker",
          "type": "bytes32"
        },
        {
          "internalType": "uint256",
          "name": "_amount",
          "type": "uint256"
        },
        {
          "internalType": "uint256",
          "name": "_price",
          "type": "uint256"
        },
        {
          "internalType": "enum Dexchange.Side",
          "name": "_side",
          "type": "uint8"
        }
      ],
      "name": "createLimitOrder",
      "outputs": [],
      "stateMutability": "nonpayable",
      "type": "function"
    },
    {
      "inputs": [
        {
          "internalType": "bytes32",
          "name": "_ticker",
          "type": "bytes32"
        },
        {
          "internalType": "uint256",
          "name": "_amount",
          "type": "uint256"
        },
        {
          "internalType": "enum Dexchange.Side",
          "name": "_side",
          "type": "uint8"
        }
      ],
      "name": "createMarketOrder",
      "outputs": [],
      "stateMutability": "nonpayable",
      "type": "function"
    },
    {
      "inputs": [
        {
          "internalType": "bytes32",
          "name": "_ticker",
          "type": "bytes32"
        },
        {
          "internalType": "uint256",
          "name": "_amount",
          "type": "uint256"
        }
      ],
      "name": "deposit",
      "outputs": [],
      "stateMutability": "nonpayable",
      "type": "function"
    },
    {
      "inputs": [
        {
          "internalType": "bytes32",
          "name": "_ticker",
          "type": "bytes32"
        },
        {
          "internalType": "enum Dexchange.Side",
          "name": "_side",
          "type": "uint8"
        }
      ],
      "name": "getOrders",
      "outputs": [
        {
          "components": [
            {
              "internalType": "uint256",
              "name": "id",
              "type": "uint256"
            },
            {
              "internalType": "address",
              "name": "trader",
              "type": "address"
            },
            {
              "internalType": "enum Dexchange.Side",
              "name": "side",
              "type": "uint8"
            },
            {
              "internalType": "bytes32",
              "name": "ticker",
              "type": "bytes32"
            },
            {
              "internalType": "uint256",
              "name": "amount",
              "type": "uint256"
            },
            {
              "internalType": "uint256",
              "name": "filled",
              "type": "uint256"
            },
            {
              "internalType": "uint256",
              "name": "price",
              "type": "uint256"
            },
            {
              "internalType": "uint256",
              "name": "date",
              "type": "uint256"
            }
          ],
          "internalType": "struct Dexchange.Order[]",
          "name": "",
          "type": "tuple[]"
        }
      ],
      "stateMutability": "view",
      "type": "function"
    },
    {
      "inputs": [],
      "name": "getTokens",
      "outputs": [
        {
          "components": [
            {
              "internalType": "bytes32",
              "name": "ticker",
              "type": "bytes32"
            },
            {
              "internalType": "address",
              "name": "tokenAddress",
              "type": "address"
            }
          ],
          "internalType": "struct Dexchange.Token[]",
          "name": "",
          "type": "tuple[]"
        }
      ],
      "stateMutability": "view",
      "type": "function"
    },
    {
      "inputs": [],
      "name": "nextOrderId",
      "outputs": [
        {
          "internalType": "uint256",
          "name": "",
          "type": "uint256"
        }
      ],
      "stateMutability": "view",
      "type": "function"
    },
    {
      "inputs": [],
      "name": "nextTradeId",
      "outputs": [
        {
          "internalType": "uint256",
          "name": "",
          "type": "uint256"
        }
      ],
      "stateMutability": "view",
      "type": "function"
    },
    {
      "inputs": [
        {
          "internalType": "bytes32",
          "name": "",
          "type": "bytes32"
        },
        {
          "internalType": "uint256",
          "name": "",
          "type": "uint256"
        },
        {
          "internalType": "uint256",
          "name": "",
          "type": "uint256"
        }
      ],
      "name": "orderBook",
      "outputs": [
        {
          "internalType": "uint256",
          "name": "id",
          "type": "uint256"
        },
        {
          "internalType": "address",
          "name": "trader",
          "type": "address"
        },
        {
          "internalType": "enum Dexchange.Side",
          "name": "side",
          "type": "uint8"
        },
        {
          "internalType": "bytes32",
          "name": "ticker",
          "type": "bytes32"
        },
        {
          "internalType": "uint256",
          "name": "amount",
          "type": "uint256"
        },
        {
          "internalType": "uint256",
          "name": "filled",
          "type": "uint256"
        },
        {
          "internalType": "uint256",
          "name": "price",
          "type": "uint256"
        },
        {
          "internalType": "uint256",
          "name": "date",
          "type": "uint256"
        }
      ],
      "stateMutability": "view",
      "type": "function"
    },
    {
      "inputs": [
        {
          "internalType": "uint256",
          "name": "",
          "type": "uint256"
        }
      ],
      "name": "tokenList",
      "outputs": [
        {
          "internalType": "bytes32",
          "name": "",
          "type": "bytes32"
        }
      ],
      "stateMutability": "view",
      "type": "function"
    },
    {
      "inputs": [
        {
          "internalType": "bytes32",
          "name": "",
          "type": "bytes32"
        }
      ],
      "name": "tokens",
      "outputs": [
        {
          "internalType": "bytes32",
          "name": "ticker",
          "type": "bytes32"
        },
        {
          "internalType": "address",
          "name": "tokenAddress",
          "type": "address"
        }
      ],
      "stateMutability": "view",
      "type": "function"
    },
    {
      "inputs": [
        {
          "internalType": "bytes32",
          "name": "_ticker",
          "type": "bytes32"
        },
        {
          "internalType": "uint256",
          "name": "_amount",
          "type": "uint256"
        }
      ],
      "name": "withdraw",
      "outputs": [],
      "stateMutability": "nonpayable",
      "type": "function"
    }
  ],
  "bytecode": "0x608060405234801561001057600080fd5b50336000806101000a81548173ffffffffffffffffffffffffffffffffffffffff021916908373ffffffffffffffffffffffffffffffffffffffff160217905550613085806100606000396000f3fe608060405234801561001057600080fd5b50600436106100f55760003560e01c8063813ad08311610097578063aa6ca80811610066578063aa6ca8081461029e578063d9c0c950146102bc578063e0bab4c4146102d8578063f851a440146102f6576100f5565b8063813ad08314610203578063904194a3146102215780639776aacf146102525780639ead72221461026e576100f5565b80631f14df69116100d35780631f14df69146101695780632a58b3301461019957806346e9658b146101b75780637f2c6246146101e7576100f5565b8063040cf020146100fa5780630bb431b6146101165780631de26e161461014d575b600080fd5b610114600480360381019061010f9190612357565b610314565b005b610130600480360381019061012b9190612397565b61056e565b6040516101449897969594939291906124c0565b60405180910390f35b61016760048036038101906101629190612357565b61060d565b005b610183600480360381019061017e919061256a565b6107d6565b60405161019091906125aa565b60405180910390f35b6101a16107fb565b6040516101ae91906125aa565b60405180910390f35b6101d160048036038101906101cc91906125ea565b610801565b6040516101de91906127b8565b60405180910390f35b61020160048036038101906101fc91906127da565b610965565b005b61020b6116bc565b60405161021891906125aa565b60405180910390f35b61023b6004803603810190610236919061282d565b6116c2565b60405161024992919061285a565b60405180910390f35b61026c60048036038101906102679190612883565b611706565b005b610288600480360381019061028391906128c3565b611853565b60405161029591906128f0565b60405180910390f35b6102a6611877565b6040516102b391906129e9565b60405180910390f35b6102d660048036038101906102d19190612a0b565b6119d2565b005b6102e061226b565b6040516102ed91906128f0565b60405180910390f35b6102fe61228f565b60405161030b9190612a72565b60405180910390f35b81600073ffffffffffffffffffffffffffffffffffffffff166002600083815260200190815260200160002060010160009054906101000a900473ffffffffffffffffffffffffffffffffffffffff1673ffffffffffffffffffffffffffffffffffffffff16036103ba576040517f08c379a00000000000000000000000000000000000000000000000000000000081526004016103b190612aea565b60405180910390fd5b81600160003373ffffffffffffffffffffffffffffffffffffffff1673ffffffffffffffffffffffffffffffffffffffff168152602001908152602001600020600085815260200190815260200160002054101561044d576040517f08c379a000000000000000000000000000000000000000000000000000000000815260040161044490612b56565b60405180910390fd5b81600160003373ffffffffffffffffffffffffffffffffffffffff1673ffffffffffffffffffffffffffffffffffffffff168152602001908152602001600020600085815260200190815260200160002060008282546104ad9190612ba5565b925050819055506002600084815260200190815260200160002060010160009054906101000a900473ffffffffffffffffffffffffffffffffffffffff1673ffffffffffffffffffffffffffffffffffffffff1663a9059cbb33846040518363ffffffff1660e01b8152600401610525929190612bd9565b6020604051808303816000875af1158015610544573d6000803e3d6000fd5b505050506040513d601f19601f820116820180604052508101906105689190612c3a565b50505050565b6003602052826000526040600020602052816000526040600020818154811061059657600080fd5b906000526020600020906007020160009250925050508060000154908060010160009054906101000a900473ffffffffffffffffffffffffffffffffffffffff16908060010160149054906101000a900460ff16908060020154908060030154908060040154908060050154908060060154905088565b81600073ffffffffffffffffffffffffffffffffffffffff166002600083815260200190815260200160002060010160009054906101000a900473ffffffffffffffffffffffffffffffffffffffff1673ffffffffffffffffffffffffffffffffffffffff16036106b3576040517f08c379a00000000000000000000000000000000000000000000000000000000081526004016106aa90612aea565b60405180910390fd5b6002600084815260200190815260200160002060010160009054906101000a900473ffffffffffffffffffffffffffffffffffffffff1673ffffffffffffffffffffffffffffffffffffffff166323b872dd3330856040518463ffffffff1660e01b815260040161072693929190612c67565b6020604051808303816000875af1158015610745573d6000803e3d6000fd5b505050506040513d601f19601f820116820180604052508101906107699190612c3a565b5081600160003373ffffffffffffffffffffffffffffffffffffffff1673ffffffffffffffffffffffffffffffffffffffff168152602001908152602001600020600085815260200190815260200160002060008282546107ca9190612c9e565b92505081905550505050565b6001602052816000526040600020602052806000526040600020600091509150505481565b60055481565b606060036000848152602001908152602001600020600083600181111561082b5761082a61243a565b5b8152602001908152602001600020805480602002602001604051908101604052809291908181526020016000905b82821015610959578382906000526020600020906007020160405180610100016040529081600082015481526020016001820160009054906101000a900473ffffffffffffffffffffffffffffffffffffffff1673ffffffffffffffffffffffffffffffffffffffff1673ffffffffffffffffffffffffffffffffffffffff1681526020016001820160149054906101000a900460ff1660018111156109025761090161243a565b5b60018111156109145761091361243a565b5b81526020016002820154815260200160038201548152602001600482015481526020016005820154815260200160068201548152505081526020019060010190610859565b50505050905092915050565b82600073ffffffffffffffffffffffffffffffffffffffff166002600083815260200190815260200160002060010160009054906101000a900473ffffffffffffffffffffffffffffffffffffffff1673ffffffffffffffffffffffffffffffffffffffff1603610a0b576040517f08c379a0000000000000000000000000000000000000000000000000000000008152600401610a0290612aea565b60405180910390fd5b837f44414900000000000000000000000000000000000000000000000000000000008103610a6e576040517f08c379a0000000000000000000000000000000000000000000000000000000008152600401610a6590612d40565b60405180910390fd5b600180811115610a8157610a8061243a565b5b836001811115610a9457610a9361243a565b5b03610b2d5783600160003373ffffffffffffffffffffffffffffffffffffffff1673ffffffffffffffffffffffffffffffffffffffff1681526020019081526020016000206000878152602001908152602001600020541015610b2c576040517f08c379a0000000000000000000000000000000000000000000000000000000008152600401610b2390612dac565b60405180910390fd5b5b6000600360008781526020019081526020016000206000806001811115610b5757610b5661243a565b5b866001811115610b6a57610b6961243a565b5b14610b76576000610b79565b60015b6001811115610b8b57610b8a61243a565b5b815260200190815260200160002090506000808690505b828054905082108015610bb55750600081115b15611443576000838381548110610bcf57610bce612dcc565b5b906000526020600020906007020160040154848481548110610bf457610bf3612dcc565b5b906000526020600020906007020160030154610c109190612ba5565b90506000818311610c215782610c23565b815b90508083610c319190612ba5565b925080858581548110610c4757610c46612dcc565b5b9060005260206000209060070201600401819055503373ffffffffffffffffffffffffffffffffffffffff16858581548110610c8657610c85612dcc565b5b906000526020600020906007020160010160009054906101000a900473ffffffffffffffffffffffffffffffffffffffff1673ffffffffffffffffffffffffffffffffffffffff168b7fdb0c486e680ba8026643e6a85f8d157b5e7bcd4b32b54d564542570a9eb20416600654898981548110610d0657610d05612dcc565b5b906000526020600020906007020160000154868b8b81548110610d2c57610d2b612dcc565b5b90600052602060002090600702016005015442604051610d50959493929190612dfb565b60405180910390a4600180811115610d6b57610d6a61243a565b5b886001811115610d7e57610d7d61243a565b5b036110465780600160003373ffffffffffffffffffffffffffffffffffffffff1673ffffffffffffffffffffffffffffffffffffffff16815260200190815260200160002060008c81526020019081526020016000206000828254610de39190612ba5565b92505081905550848481548110610dfd57610dfc612dcc565b5b90600052602060002090600702016005015481610e1a9190612e4e565b600160003373ffffffffffffffffffffffffffffffffffffffff1673ffffffffffffffffffffffffffffffffffffffff16815260200190815260200160002060007f444149000000000000000000000000000000000000000000000000000000000081526020019081526020016000206000828254610e999190612c9e565b925050819055508060016000878781548110610eb857610eb7612dcc565b5b906000526020600020906007020160010160009054906101000a900473ffffffffffffffffffffffffffffffffffffffff1673ffffffffffffffffffffffffffffffffffffffff1673ffffffffffffffffffffffffffffffffffffffff16815260200190815260200160002060008c81526020019081526020016000206000828254610f449190612c9e565b92505081905550848481548110610f5e57610f5d612dcc565b5b90600052602060002090600702016005015481610f7b9190612e4e565b60016000878781548110610f9257610f91612dcc565b5b906000526020600020906007020160010160009054906101000a900473ffffffffffffffffffffffffffffffffffffffff1673ffffffffffffffffffffffffffffffffffffffff1673ffffffffffffffffffffffffffffffffffffffff16815260200190815260200160002060007f44414900000000000000000000000000000000000000000000000000000000008152602001908152602001600020600082825461103e9190612ba5565b925050819055505b6000600181111561105a5761105961243a565b5b88600181111561106d5761106c61243a565b5b036114165784848154811061108557611084612dcc565b5b906000526020600020906007020160050154816110a29190612e4e565b600160003373ffffffffffffffffffffffffffffffffffffffff1673ffffffffffffffffffffffffffffffffffffffff16815260200190815260200160002060007f444149000000000000000000000000000000000000000000000000000000000081526020019081526020016000205411611153576040517f08c379a000000000000000000000000000000000000000000000000000000000815260040161114a90612ef4565b60405180910390fd5b80600160003373ffffffffffffffffffffffffffffffffffffffff1673ffffffffffffffffffffffffffffffffffffffff16815260200190815260200160002060008c815260200190815260200160002060008282546111b39190612c9e565b925050819055508484815481106111cd576111cc612dcc565b5b906000526020600020906007020160050154816111ea9190612e4e565b600160003373ffffffffffffffffffffffffffffffffffffffff1673ffffffffffffffffffffffffffffffffffffffff16815260200190815260200160002060007f4441490000000000000000000000000000000000000000000000000000000000815260200190815260200160002060008282546112699190612ba5565b92505081905550806001600087878154811061128857611287612dcc565b5b906000526020600020906007020160010160009054906101000a900473ffffffffffffffffffffffffffffffffffffffff1673ffffffffffffffffffffffffffffffffffffffff1673ffffffffffffffffffffffffffffffffffffffff16815260200190815260200160002060008c815260200190815260200160002060008282546113149190612ba5565b9250508190555084848154811061132e5761132d612dcc565b5b9060005260206000209060070201600501548161134b9190612e4e565b6001600087878154811061136257611361612dcc565b5b906000526020600020906007020160010160009054906101000a900473ffffffffffffffffffffffffffffffffffffffff1673ffffffffffffffffffffffffffffffffffffffff1673ffffffffffffffffffffffffffffffffffffffff16815260200190815260200160002060007f44414900000000000000000000000000000000000000000000000000000000008152602001908152602001600020600082825461140e9190612c9e565b925050819055505b6006600081548092919061142990612f14565b9190505550838061143990612f14565b9450505050610ba2565b600091505b8280549050821080156114a2575082828154811061146957611468612dcc565b5b90600052602060002090600702016003015483838154811061148e5761148d612dcc565b5b906000526020600020906007020160040154145b156116b25760008290505b600184805490506114be9190612ba5565b81101561160957836001826114d39190612c9e565b815481106114e4576114e3612dcc565b5b906000526020600020906007020184828154811061150557611504612dcc565b5b9060005260206000209060070201600082015481600001556001820160009054906101000a900473ffffffffffffffffffffffffffffffffffffffff168160010160006101000a81548173ffffffffffffffffffffffffffffffffffffffff021916908373ffffffffffffffffffffffffffffffffffffffff1602179055506001820160149054906101000a900460ff168160010160146101000a81548160ff021916908360018111156115bc576115bb61243a565b5b02179055506002820154816002015560038201548160030155600482015481600401556005820154816005015560068201548160060155905050808061160190612f14565b9150506114ad565b508280548061161b5761161a612f5c565b5b60019003818190600052602060002090600702016000808201600090556001820160006101000a81549073ffffffffffffffffffffffffffffffffffffffff02191690556001820160146101000a81549060ff0219169055600282016000905560038201600090556004820160009055600582016000905560068201600090555050905581806116aa90612f14565b925050611448565b5050505050505050565b60065481565b60026020528060005260406000206000915090508060000154908060010160009054906101000a900473ffffffffffffffffffffffffffffffffffffffff16905082565b60008054906101000a900473ffffffffffffffffffffffffffffffffffffffff1673ffffffffffffffffffffffffffffffffffffffff163373ffffffffffffffffffffffffffffffffffffffff1614611794576040517f08c379a000000000000000000000000000000000000000000000000000000000815260040161178b90612fd7565b60405180910390fd5b60405180604001604052808381526020018273ffffffffffffffffffffffffffffffffffffffff16815250600260008481526020019081526020016000206000820151816000015560208201518160010160006101000a81548173ffffffffffffffffffffffffffffffffffffffff021916908373ffffffffffffffffffffffffffffffffffffffff16021790555090505060048290806001815401808255809150506001900390600052602060002001600090919091909150555050565b6004818154811061186357600080fd5b906000526020600020016000915090505481565b6060600060048054905067ffffffffffffffff81111561189a57611899612ff7565b5b6040519080825280602002602001820160405280156118d357816020015b6118c06122b3565b8152602001906001900390816118b85790505b50905060005b6004805490508110156119ca576040518060400160405280600260006004858154811061190957611908612dcc565b5b90600052602060002001548152602001908152602001600020600001548152602001600260006004858154811061194357611942612dcc565b5b9060005260206000200154815260200190815260200160002060010160009054906101000a900473ffffffffffffffffffffffffffffffffffffffff1673ffffffffffffffffffffffffffffffffffffffff168152508282815181106119ac576119ab612dcc565b5b602002602001018190525080806119c290612f14565b9150506118d9565b508091505090565b83600073ffffffffffffffffffffffffffffffffffffffff166002600083815260200190815260200160002060010160009054906101000a900473ffffffffffffffffffffffffffffffffffffffff1673ffffffffffffffffffffffffffffffffffffffff1603611a78576040517f08c379a0000000000000000000000000000000000000000000000000000000008152600401611a6f90612aea565b60405180910390fd5b847f44414900000000000000000000000000000000000000000000000000000000008103611adb576040517f08c379a0000000000000000000000000000000000000000000000000000000008152600401611ad290612d40565b60405180910390fd5b600180811115611aee57611aed61243a565b5b836001811115611b0157611b0061243a565b5b03611b9e5784600160003373ffffffffffffffffffffffffffffffffffffffff1673ffffffffffffffffffffffffffffffffffffffff1681526020019081526020016000206000888152602001908152602001600020541015611b99576040517f08c379a0000000000000000000000000000000000000000000000000000000008152600401611b9090612dac565b60405180910390fd5b611c5d565b8385611baa9190612e4e565b600160003373ffffffffffffffffffffffffffffffffffffffff1673ffffffffffffffffffffffffffffffffffffffff16815260200190815260200160002060007f44414900000000000000000000000000000000000000000000000000000000008152602001908152602001600020541015611c5c576040517f08c379a0000000000000000000000000000000000000000000000000000000008152600401611c5390612ef4565b60405180910390fd5b5b6000600360008881526020019081526020016000206000856001811115611c8757611c8661243a565b5b815260200190815260200160002090508060405180610100016040528060055481526020013373ffffffffffffffffffffffffffffffffffffffff168152602001866001811115611cdb57611cda61243a565b5b8152602001898152602001888152602001600081526020018781526020014281525090806001815401808255809150506001900390600052602060002090600702016000909190919091506000820151816000015560208201518160010160006101000a81548173ffffffffffffffffffffffffffffffffffffffff021916908373ffffffffffffffffffffffffffffffffffffffff16021790555060408201518160010160146101000a81548160ff02191690836001811115611da257611da161243a565b5b0217905550606082015181600201556080820151816003015560a0820151816004015560c0820151816005015560e082015181600601555050600080828054905011611def576000611e01565b60018280549050611e009190612ba5565b5b90505b60008111156122495760006001811115611e2157611e2061243a565b5b856001811115611e3457611e3361243a565b5b148015611e945750818181548110611e4f57611e4e612dcc565b5b90600052602060002090600702016005015482600183611e6f9190612ba5565b81548110611e8057611e7f612dcc565b5b906000526020600020906007020160050154115b61224957600180811115611eab57611eaa61243a565b5b856001811115611ebe57611ebd61243a565b5b148015611f1e5750818181548110611ed957611ed8612dcc565b5b90600052602060002090600702016005015482600183611ef99190612ba5565b81548110611f0a57611f09612dcc565b5b906000526020600020906007020160050154105b61224957600082600183611f329190612ba5565b81548110611f4357611f42612dcc565b5b906000526020600020906007020160405180610100016040529081600082015481526020016001820160009054906101000a900473ffffffffffffffffffffffffffffffffffffffff1673ffffffffffffffffffffffffffffffffffffffff1673ffffffffffffffffffffffffffffffffffffffff1681526020016001820160149054906101000a900460ff166001811115611fe257611fe161243a565b5b6001811115611ff457611ff361243a565b5b815260200160028201548152602001600382015481526020016004820154815260200160058201548152602001600682015481525050905082828154811061203f5761203e612dcc565b5b90600052602060002090600702018360018461205b9190612ba5565b8154811061206c5761206b612dcc565b5b9060005260206000209060070201600082015481600001556001820160009054906101000a900473ffffffffffffffffffffffffffffffffffffffff168160010160006101000a81548173ffffffffffffffffffffffffffffffffffffffff021916908373ffffffffffffffffffffffffffffffffffffffff1602179055506001820160149054906101000a900460ff168160010160146101000a81548160ff021916908360018111156121235761212261243a565b5b021790555060028201548160020155600382015481600301556004820154816004015560058201548160050155600682015481600601559050508083838154811061217157612170612dcc565b5b90600052602060002090600702016000820151816000015560208201518160010160006101000a81548173ffffffffffffffffffffffffffffffffffffffff021916908373ffffffffffffffffffffffffffffffffffffffff16021790555060408201518160010160146101000a81548160ff021916908360018111156121fb576121fa61243a565b5b0217905550606082015181600201556080820151816003015560a0820151816004015560c0820151816005015560e08201518160060155905050818061224090613026565b92505050611e04565b6005600081548092919061225c90612f14565b91905055505050505050505050565b7f444149000000000000000000000000000000000000000000000000000000000081565b60008054906101000a900473ffffffffffffffffffffffffffffffffffffffff1681565b604051806040016040528060008019168152602001600073ffffffffffffffffffffffffffffffffffffffff1681525090565b600080fd5b6000819050919050565b6122fe816122eb565b811461230957600080fd5b50565b60008135905061231b816122f5565b92915050565b6000819050919050565b61233481612321565b811461233f57600080fd5b50565b6000813590506123518161232b565b92915050565b6000806040838503121561236e5761236d6122e6565b5b600061237c8582860161230c565b925050602061238d85828601612342565b9150509250929050565b6000806000606084860312156123b0576123af6122e6565b5b60006123be8682870161230c565b93505060206123cf86828701612342565b92505060406123e086828701612342565b9150509250925092565b6123f381612321565b82525050565b600073ffffffffffffffffffffffffffffffffffffffff82169050919050565b6000612424826123f9565b9050919050565b61243481612419565b82525050565b7f4e487b7100000000000000000000000000000000000000000000000000000000600052602160045260246000fd5b6002811061247a5761247961243a565b5b50565b600081905061248b82612469565b919050565b600061249b8261247d565b9050919050565b6124ab81612490565b82525050565b6124ba816122eb565b82525050565b6000610100820190506124d6600083018b6123ea565b6124e3602083018a61242b565b6124f060408301896124a2565b6124fd60608301886124b1565b61250a60808301876123ea565b61251760a08301866123ea565b61252460c08301856123ea565b61253160e08301846123ea565b9998505050505050505050565b61254781612419565b811461255257600080fd5b50565b6000813590506125648161253e565b92915050565b60008060408385031215612581576125806122e6565b5b600061258f85828601612555565b92505060206125a08582860161230c565b9150509250929050565b60006020820190506125bf60008301846123ea565b92915050565b600281106125d257600080fd5b50565b6000813590506125e4816125c5565b92915050565b60008060408385031215612601576126006122e6565b5b600061260f8582860161230c565b9250506020612620858286016125d5565b9150509250929050565b600081519050919050565b600082825260208201905092915050565b6000819050602082019050919050565b61265f81612321565b82525050565b61266e81612419565b82525050565b61267d81612490565b82525050565b61268c816122eb565b82525050565b610100820160008201516126a96000850182612656565b5060208201516126bc6020850182612665565b5060408201516126cf6040850182612674565b5060608201516126e26060850182612683565b5060808201516126f56080850182612656565b5060a082015161270860a0850182612656565b5060c082015161271b60c0850182612656565b5060e082015161272e60e0850182612656565b50505050565b60006127408383612692565b6101008301905092915050565b6000602082019050919050565b60006127658261262a565b61276f8185612635565b935061277a83612646565b8060005b838110156127ab5781516127928882612734565b975061279d8361274d565b92505060018101905061277e565b5085935050505092915050565b600060208201905081810360008301526127d2818461275a565b905092915050565b6000806000606084860312156127f3576127f26122e6565b5b60006128018682870161230c565b935050602061281286828701612342565b9250506040612823868287016125d5565b9150509250925092565b600060208284031215612843576128426122e6565b5b60006128518482850161230c565b91505092915050565b600060408201905061286f60008301856124b1565b61287c602083018461242b565b9392505050565b6000806040838503121561289a576128996122e6565b5b60006128a88582860161230c565b92505060206128b985828601612555565b9150509250929050565b6000602082840312156128d9576128d86122e6565b5b60006128e784828501612342565b91505092915050565b600060208201905061290560008301846124b1565b92915050565b600081519050919050565b600082825260208201905092915050565b6000819050602082019050919050565b60408201600082015161294d6000850182612683565b5060208201516129606020850182612665565b50505050565b60006129728383612937565b60408301905092915050565b6000602082019050919050565b60006129968261290b565b6129a08185612916565b93506129ab83612927565b8060005b838110156129dc5781516129c38882612966565b97506129ce8361297e565b9250506001810190506129af565b5085935050505092915050565b60006020820190508181036000830152612a03818461298b565b905092915050565b60008060008060808587031215612a2557612a246122e6565b5b6000612a338782880161230c565b9450506020612a4487828801612342565b9350506040612a5587828801612342565b9250506060612a66878288016125d5565b91505092959194509250565b6000602082019050612a87600083018461242b565b92915050565b600082825260208201905092915050565b7f7468697320746f6b656e20646f6573206e6f7420657869737400000000000000600082015250565b6000612ad4601983612a8d565b9150612adf82612a9e565b602082019050919050565b60006020820190508181036000830152612b0381612ac7565b9050919050565b7f62616c616e636520746f206c6f77000000000000000000000000000000000000600082015250565b6000612b40600e83612a8d565b9150612b4b82612b0a565b602082019050919050565b60006020820190508181036000830152612b6f81612b33565b9050919050565b7f4e487b7100000000000000000000000000000000000000000000000000000000600052601160045260246000fd5b6000612bb082612321565b9150612bbb83612321565b925082821015612bce57612bcd612b76565b5b828203905092915050565b6000604082019050612bee600083018561242b565b612bfb60208301846123ea565b9392505050565b60008115159050919050565b612c1781612c02565b8114612c2257600080fd5b50565b600081519050612c3481612c0e565b92915050565b600060208284031215612c5057612c4f6122e6565b5b6000612c5e84828501612c25565b91505092915050565b6000606082019050612c7c600083018661242b565b612c89602083018561242b565b612c9660408301846123ea565b949350505050565b6000612ca982612321565b9150612cb483612321565b9250827fffffffffffffffffffffffffffffffffffffffffffffffffffffffffffffffff03821115612ce957612ce8612b76565b5b828201905092915050565b7f63616e6e6f742074726164652044414900000000000000000000000000000000600082015250565b6000612d2a601083612a8d565b9150612d3582612cf4565b602082019050919050565b60006020820190508181036000830152612d5981612d1d565b9050919050565b7f62616c616e636520746f6f206c6f770000000000000000000000000000000000600082015250565b6000612d96600f83612a8d565b9150612da182612d60565b602082019050919050565b60006020820190508181036000830152612dc581612d89565b9050919050565b7f4e487b7100000000000000000000000000000000000000000000000000000000600052603260045260246000fd5b600060a082019050612e1060008301886123ea565b612e1d60208301876123ea565b612e2a60408301866123ea565b612e3760608301856123ea565b612e4460808301846123ea565b9695505050505050565b6000612e5982612321565b9150612e6483612321565b9250817fffffffffffffffffffffffffffffffffffffffffffffffffffffffffffffffff0483118215151615612e9d57612e9c612b76565b5b828202905092915050565b7f4441492062616c616e636520746f6f206c6f7700000000000000000000000000600082015250565b6000612ede601383612a8d565b9150612ee982612ea8565b602082019050919050565b60006020820190508181036000830152612f0d81612ed1565b9050919050565b6000612f1f82612321565b91507fffffffffffffffffffffffffffffffffffffffffffffffffffffffffffffffff8203612f5157612f50612b76565b5b600182019050919050565b7f4e487b7100000000000000000000000000000000000000000000000000000000600052603160045260246000fd5b7f6f6e6c792061646d696e00000000000000000000000000000000000000000000600082015250565b6000612fc1600a83612a8d565b9150612fcc82612f8b565b602082019050919050565b60006020820190508181036000830152612ff081612fb4565b9050919050565b7f4e487b7100000000000000000000000000000000000000000000000000000000600052604160045260246000fd5b600061303182612321565b91506000820361304457613043612b76565b5b60018203905091905056fea2646970667358221220ffa5e7075f8ae97a4d3d15b4ab79bf0070c39d7bbf14d6013253c056809beb5a64736f6c634300080d0033",
  "linkReferences": {},
  "deployedLinkReferences": {}
}